:020000041000EA
:1000000000B5324B212058609868022188439860DF
:10001000D860186158612E4B002199600221596106
:100020000121F02299502B49196001219960352056
:1000300000F044F80222904214D00621196600F024
:1000400034F8196E01211966002018661A6600F04E
:100050002CF8196E196E196E052000F02FF8012189
:100060000842F9D1002199601B49196000215960AB
:100070001A491B48016001219960EB211966A021F2
:10008000196600F012F800219960164914480160C1
:100090000121996001BC002800D000471248134993
:1000A000086003C880F30888084703B5996A0420EC
:1000B0000142FBD001200142F8D103BD02B5186610
:1000C0001866FFF7F2FF186E186E02BD00000240BE
:1000D000000000180000070000035F00212200005C
:1000E000F4000018222000A00001001008ED00E03C
:1000F00000000000000000000000000074B24E7A12
:1001000000200420F7010010C3010010C5010010F9
:10011000C1010010C1010010C1010010C101001097
:10012000C1010010C1010010C1010010C701001081
:10013000C1010010C101001059960210CB0100103E
:10014000CD010010CD010010CD010010CD01001037
:10015000CD010010CD010010CD010010CD01001027
:10016000CD010010CD010010CD010010CD01001017
:10017000CD010010CD010010CD010010CD01001007
:10018000CD010010CD010010CD010010CD010010F7
:10019000CD010010CD010010CD010010CD010010E7
:1001A000CD010010CD010010CD010010CD010010D7
:1001B000CD010010CD010010CD010010CD010010C7
:1001C00000BE00BE00BE00BE00BE00BE00F04BF888
:1001D000103800BEF2EB88712C5A0410945A0410A7
:1001E0003402001090A31AE700202149086006C8D5
:1001F00081F3088810471F48006800282FD10DA4FC
:100200000ECC002902D000F012F8F9E71A491B4A77
:10021000002000E001C19142FCD1194988471949E9
:1002200088471949884700BEFDE701C901C29A42C3
:10023000FBD37047945A0410C0000020BC6000201B
:1002400090BA0410000004200000042090BA0410AA
:1002500000100420001004200000000070470B482C
:100260002CF00FFC0047EFF30580C0B27047000090
:1002700008ED00E0000000D0C060032040770320BC
:10028000CDEA0210118D021099EB021057560000B2
:1002900006005250ABB360537D5904100600525013
:1002A000861C03029CF00310060052505422A29DAB
:1002B0008859041005005250DE65F46890BA0410A5
:1002C000F8B5C0460448054B10B5834203D0044B33
:1002D000002B00D0984710BDBC600020BC600020FF
:1002E0000000000006480749091A8B10C90FC918F9
:1002F00010B5491003D0044B002B00D0984710BD17
:10030000BC600020BC6000200000000010B5074C5D
:100310002378002B09D1FFF7D5FF054B002B02D026
:10032000044800E000BF0123237010BDC06103201A
:1003300000000000F82D0310054B10B5002B03D072
:100340000449054800E000BFFFF7CCFF10BDC046E0
:1003500000000000C4610320F82D0310030010B555
:100360001000540C520892B2002904D0C00702D4E5
:100370000C4817F011FE944206D19C4210D0220086
:1003800009490A4816F05AFE9C4204D90849074810
:10039000E21A16F053FE9A4202D206490348F1E7E8
:1003A00010BDC046F82D0310202E0310C05A0310B4
:1003B000592E03108B2E0310F0B500252F0087B0A7
:1003C0000C9C0D9E02900491039205930195059B50
:1003D0009D4206D1019B029A934238D2204817F0E1
:1003E000DBFD029B9D4211D263889B05F6D4019BE5
:1003F000049A01330193AB00D058FF226388134065
:10040000012B1ED10DF098F8307013E002232188E3
:100410000022C9000398194309F07EFA00280DD183
:100420006388DB0504D522880E490F4816F006FEC6
:1004300063683360013508340436C8E74068013723
:10044000DBE7022B01D10CF0FBFE3060F2E7039BEF
:100450001B68DB08BB4201D90448C0E707B0F0BD08
:10046000D12E0310BA2E0310C05A0310F22E03101F
:1004700070B515001E00040086B08200AA1803A8FB
:1004800009F022FA0B9B290001930A9B200000939C
:1004900003AA3300FFF790FF06B070BD10B5014806
:1004A00017F09CFD102F031010B5040001618800A7
:1004B00009F0B2F9606110BD10B50400002902D046
:1004C000C06809F0DDF9606909F0DAF910BD70B5AE
:1004D00004000D0001290BDC012102694942406939
:1004E000920030F01DFC002325706370636070BDC6
:1004F000406809F091F96368E060A360F3E730B504
:10050000030044780020844208D11D7820005A68F6
:10051000022D01D1D86880188918596030BD002398
:1005200043700378012B03D8426843698900CA509D
:10053000704742684B1E9B18494219404160704702
:1005400070B50C001500FFF7DAFF0419002803D17D
:1005500070BD05702D0A0130A042FAD1F8E710B540
:100560000C000221FFF7CBFF002802D00470240A00
:10057000447010BD70B50500012909DC00290ADBB3
:100580001349FFF7ECFF0026F223EE61AB6170BD6B
:100590008B1E012B10D90123023999430C000E0048
:1005A00028000C49FFF7DBFF7F2C0BD80A492800F5
:1005B0002143FFF7D4FF03E00649FFF7D0FF0026F1
:1005C000FE23E2E728000549FFF7C9FF7F3CEBE780
:1005D000F2B50000FEB5000080B00000FFB00000E2
:1005E00070B5C5690400002D07D07F2D0DD8B0214E
:1005F000090220002943FFF7B2FFBD21A3690902C8
:1006000020001943FFF7ABFF70BD20000249FFF740
:10061000A6FF7F3DE9E7C0467FB00000F7B50B02BB
:10062000FF270E000193140013120A0280213B40A1
:100630001343890119430500FFF791FF8021F3005F
:100640003343890028001943FFF789FFC021019B2C
:100650003C401C43890128002143FFF780FFF7BD80
:1006600070B50D0004211400FFF749FF002805D0E4
:10067000057084702D0A240A4570C47070BD10B5D1
:10068000DB0011431943FFF76AFF10BD10B5072ABD
:1006900009D8D20007290BD80A438C21C90111437C
:1006A000FFF75DFF10BD083AD30040221A43F1E77F
:1006B000083911438022EFE7F7B515000A0006005C
:1006C0000C002A43072A11D81F00089A9740FF2FD1
:1006D0000DD8A94202D02A00FFF7D8FFC02124027A
:1006E0003C43890121433000FFF739FFF7BDCA00C1
:1006F0000192FF2B18D8A94222D00A02802113436D
:1007000089011943FFF72BFF089B30009901214312
:10071000E3001943FFF723FFC021AD01E3001D43B0
:10072000254349012943DEE7A94209D03A00FFF7F2
:1007300075FF4823C0216343490123431943D2E78E
:10074000072501236540B421AB400902194330005D
:100750000093FFF704FF29003A003000FFF75EFF27
:10076000C021019BAD0125431D43490129433000B0
:10077000FFF7F5FEBC21009B0902DFE74369890012
:1007800070B5CC58E021050043680902E41A043C26
:1007900023055B0D1943FFF7E2FE2B780120022BA6
:1007A00008D180231B019C4204D3E40AE402E01830
:1007B0004342584170BD70B50500002083421BD1F3
:1007C000FF266B699200D4586B680902E41A043C56
:1007D000631033400B43D021090228001943FFF76F
:1007E000BEFE2B780120022B06D1B44204D9B443BB
:1007F0000134FF346042604170BD4369F8228900D2
:1008000070B5CC58F021050043681202E41A043C8C
:1008100063109BB21A4363025B0D09021943FFF791
:100820001FFF2B780120022B08D18023DB039C4281
:1008300004D3A40DA405E0184342584170BD000044
:10084000F8B5476804000E001500BB0703D5BF21AB
:100850000902FFF784FE90213602C90131432000CE
:10086000FFF77DFE20000649FFF779FEA9B22000C0
:10087000FFF775FE2000290CFFF771FE3800F8BD68
:1008800001E00000F0B507000D00160085B0072953
:1008900039D8FF2A08D80D02802115438901294340
:1008A000FFF75DFE05B0F0BDD30F0293D317D41848
:1008B0005C4020002EF096F9039020002EF098F96D
:1008C0000190019A039B94466344172B2BD9144142
:1008D00080212B02E4B21C43890138002143FFF739
:1008E0003EFE019BE90029439B0138001943FFF7B5
:1008F00036FE029B002BD5D02B002A00380013496E
:10090000FFF7BDFECEE7D317D4185C4020002EF0D1
:1009100069F90390002E02D0F30F0293CDE7340063
:1009200002960196CDE780235B029C4205DA220005
:1009300029003800FFF772FEDBE7002E00DA644280
:10094000220029003800FFF77BFFABE740420000A0
:1009500010B50378012B04D9FF2902D9054817F0F7
:100960003DFBC9B212020A43902109021143FFF76D
:10097000F6FD10BD522F031010B50378012B04D9DA
:10098000FF2A02D9054817F029FB9823D2B20902A1
:1009900011431B021943FFF7E2FD10BD522F031054
:1009A000A82310B5D2B2090211431B021943FFF765
:1009B000D6FD10BD43699200D358426870B59B1AAA
:1009C00001221A430C3A0C000500FFF727FEB22162
:1009D0002800230022000902FFF751FE8022230194
:1009E0001340793A14400349234328001943FFF781
:1009F000B6FD70BD7844000037B50D00040011430A
:100A000007290CD81F2B0AD8D021D2002A439B01DA
:100A10001A43C90111432000FFF7A1FD37BD022190
:100A20001F3B009120002900FFF746FE0249EB0022
:100A30002B431943EFE7C046C06F000043698900AC
:100A400010B5CC584168611A0439631C0ED0CB1C18
:100A50000CDA124ACB0ADB02934217D109054B0D7F
:100A6000E02109021943FFF77AFD10BD80231B0125
:100A70009942F3D3094ACB0ADB029342EED0BF215D
:100A80000902FFF76CFD0134EFD003E0BF2109023A
:100A9000FFF765FD024817F0A1FAC04600F8FFFF16
:100AA000742F0310436970B515009200D258436843
:100AB0000400D31A043B0902013211D0DA1C0FDA08
:100AC000FF221E000D489643864209D15B10134059
:100AD0000B43D021090220001943FFF740FD70BDF0
:100AE00080235B004B40D021090220001943FFF70F
:100AF00036FD29002000FFF7A1FFF0E700FFFFFF10
:100B0000043A52100902D2B20A43D02110B50902A8
:100B10001143FFF724FD10BD04390B05E02110B58A
:100B20005B0D09021943FFF71AFD10BD70B51400E3
:100B30000B00072221000500FFF75EFF8F21E40074
:100B4000C90128002143FFF70AFD70BD73B50B00F2
:100B500069464C1D21007F261500013C354025705B
:100B6000D209F9D1091B984700280AD08026020033
:100B7000230001AD7642AB4204D16A4612791B1BB9
:100B8000C25473BD19780133314311700132F2E759
:100B9000030030B502687F2400201178C0010D00E9
:100BA00049B22540013228430029F6DB1A6030BDE6
:100BB00007B5019001A8FFF7EBFF0EBD03780130E8
:100BC0007F2BFBD870470000F0B593B00A93036801
:100BD0000992049383890700089343680C005A1C08
:100BE000426003221B7804201A4000920022012157
:100BF000160084460292019278685BB2451C002B75
:100C00001DDB062200233F25944607930B937A6849
:100C10000120511C79601278110001409940079819
:100C200008430790604658435110294081400B9873
:100C300052B208430B90002A1BDA0133E7E77D60CC
:100C40000378009D98110840904006436046184084
:100C500090400543D810084090400095019D054301
:100C60001800084090400195029D0132054302950D
:100C7000C2E70021BB68F981059304330393089B05
:100C800003989B001A00069330F04AF8009A089BDC
:100C90009B1A019A0D939D1A013D039BAD005D19AE
:100CA0000423009A3340A24200D370E0002B04D109
:100CB00023009849984816F0C1F92B1F0C93009B0C
:100CC00099000A9B5918009BE01A13F0DDFD009B68
:100CD00028600C9D0A9A059906989B0009189B1894
:100CE000934200D080E00823099A33400E931A43C0
:100CF0000223002A00D1F1E032001A400F920022B4
:100D00000C921E4204D009980EF030F80C90286026
:100D10000A9BA4001C1900230A930A9B099A934278
:100D200066D10D9B029A9D00039B049903325B19C7
:100D3000920088181900029C002C00D093E00399BF
:100D40000C3A8C469B18069A62449A4200D993E06A
:100D50007868FFF733FF0026009B1190B34200D064
:100D600094E0059B5D19019BA34200D092E00B9B90
:100D70007D68ED182E00079BEB180093009B9E42A8
:100D800000D0B9E0079BED187D6013B0F0BD002BDB
:100D900002D0624B043D6B600823099A3340134331
:100DA00017D1009B029A9A1AA24200D980E7029BAF
:100DB000009A1B199B1A049A9B00D3180699059A4E
:100DC0000C93501822000C9B04330C93009B93420D
:100DD00001D123007EE70C9BD9688C4663469100C5
:100DE000494243500132EEE701CA0439486077E7CF
:100DF0007868FFF7E3FE002625681190009B019AB2
:100E00009B18B34205D80F9B002B26D14449EA0812
:100E100017E011A8FFF7BCFE0222049B40005B68AC
:100E20009B68C35ADB0013439D4214D1089B013BCE
:100E30009B1B9340039AD3181A68002A04D039499F
:100E4000EA08354816F0FAF862681A600A9B083416
:100E500001330A9361E70136D0E7290062680C98F4
:100E60000DF0F9FFF2E70E68002E01D106680E6062
:100E7000013C043104385FE70433191F0968002975
:100E800000D062E7D21A28499210DAE7FFF796FEFF
:100E9000013661E711A8FFF77BFE049B2A685B68B7
:100EA00040009B68C65A002A11D10E9B002B11D01E
:100EB0000223F1001943029B049804339B00185845
:100EC000043008F029FD002804D043682B60013469
:100ED000043D48E7320015490F48B3E7019A002A5C
:100EE00002D0134817F058F81E4200D13FE701988E
:100EF0000DF03CFF28603AE7089B5C1E3378013612
:100F0000E41A039BA4001C1920680DF02DF9206041
:100F100034E7C046202E0310C05A0310587803103F
:100F2000B92F03108A2F0310DA2F03100C3003108F
:100F30003C30031010B50468E468446004001034C9
:100F40008460FFF741FE10BD10B5040010348460CA
:100F5000FFF73AFE10BD0000030070B5402831D005
:100F60000CD8022083433C2B08D13B3B622916D886
:100F7000482906D8422955D048291FD02E4816F0B6
:100F800041FE08001C004938C0B284402B4804428E
:100F90004BD1622946D05129F0D108200EE06439A6
:100FA000C9B20D29EAD81C0092258C406D002C4254
:100FB0003BD1234D2C42F0D10429DFD1002A00D0AF
:100FC000136070BD62291BD848290AD8422928D04D
:100FD000022318004829F1D0013B18009942EDD0B6
:100FE000CCE7012308001C004938C0B284401348F4
:100FF00004421ED1622915D05129BFD1082311E026
:101000006439C9B20D29B9D8012392208B40400020
:10101000034209D10A48034209D10429AED102236F
:1010200000E001231800C9E704230420C6E70823D1
:10103000B3E70423F6E7C04663300310C904000099
:101040000120000010B5512812D8412803D80128EA
:1010500023D000231DE042380F28FAD831F03CFE9F
:101060001DF9F9F9F9F92225F9F925F9F94447317A
:101070006238C3B20F2BECD80F28EAD831F02CFE1F
:1010800008E92DE928E90F37E9E937E9E9E9E91A3B
:101090008B5601205B0018430BE08B5CF9E7520094
:1010A000535EF6E75200535AF3E7920050580FF0A0
:1010B00075FA10BDD2008A18106851680FF0D7F980
:1010C000F7E7D2008918086849680FF0EBF9F0E7F4
:1010D000920050580EF026FAEBE7D2008918086803
:1010E00049682EF0EDF8F5E792005058E1E79200DC
:1010F00050580FF0CBF9DCE7F7B507000C000126DC
:10110000002A02D1421E9B18023E00200021002C22
:1011100006D0002200259A56D40F00216042A94132
:10112000002211E0040E00940C0201940402250038
:101130001C780132A4462C0065462C432000009DFB
:10114000019C9B1925432900BA42EBD103B0F0BDA5
:10115000F0B585B0019203AA04000D001F001E68BF
:10116000FFF7FAFE402C09D1039B019A043CB61A02
:101170005A1EB6185B421E40019B9E195A21331815
:101180003E3C3B60A942894163425C414942330095
:10119000E2B2FFF7B1FF06000F004F2D07D0532D2D
:1011A00007D131F0F9FD0100300011F0A3FC05B0CA
:1011B000F0BD662D03D0642D04D12EF081F80EF021
:1011C000B1F9F4E75A2D13D980220023D2059219E0
:1011D0007B4130001100002B06D180231B06994271
:1011E00002D20FF053F9E2E739000FF040F9DEE7E1
:1011F000002906D18023DB05984202D20FF0CEF9F8
:10120000D5E739000FF04EF9D1E713B5040001938B
:101210001000002904D1220001A92FF087FD13BD81
:1012200001AB1B191419A042F9D0013B19780170C8
:101230000130F8E7F0B589B01F000E9B140005AA35
:101240001D6801900291FFF787FE019B0600402B6D
:1012500008D1059BED1B5A1EAD185B421D403C2377
:101260007D1901930E9AAB191360019B3E3B0393CA
:101270005F425F41029BFFB2642B12D0662B0BD002
:101280004F2B2CD13000042E00D9042023002A003B
:101290003900FFF7BAFF2EE020000CF057F80400E9
:1012A000F0E720000CF052F82EF064FF1024BB0091
:1012B000069007911B1904AA9B18083B2A001B687B
:1012C00039000420FFF7A1FF039B04355A1E934108
:1012D0009B001B1904AA9B18083B1C68D2E7A307B4
:1012E0000BD1104B22689A4207D12B0032003900F3
:1012F00020000FF06DF809B0F0BD20000BF0A0FF4A
:101300000400042EBED90021884200DAFF313200E9
:1013100028002FF005FD019B3E2BB3D1331FED18A4
:10132000B0E7C046BC65031070B50C00712807D843
:10133000612806D801281DD04238C1B20F290DD925
:1013400070BD62380F28FBD831F0C6FC14FA25FABC
:101350001FFA162DFAFA2DFAFAFAFA190F28EFD811
:1013600031F0BAFC08EEEEEEEEEE0A21EEEE21EEE2
:10137000EEEE210DA354E3E752001353E0E7D20051
:10138000A2181360DB175360DAE7180095002EF0FF
:1013900081FE6051D4E7D20018008C182DF048FF70
:1013A00020606160CCE792001351C9E7F7B50600F1
:1013B0000F0014001D0064280DD0662804D04F28AB
:1013C00013D19400E35105E0940018000C190BF0C0
:1013D000BDFF2060F7BDD40018000C190BF0B6FF5C
:1013E0002EF0C8FE20606160F4E703232A001A4053
:1013F00001921D4210D10D4B2A689A420CD1010076
:10140000019A4020FFF7A8FD4443020001992800FB
:101410003B190EF0DDFFDDE728000BF011FF220085
:10142000030039003000FFF77FFFD3E7BC650310EE
:10143000D02212061268024B9200D0587047C04664
:10144000F867032073B50C0001A9206811F04AFF6A
:101450000500606811F0CCFE29000023019A08F015
:10146000A9F90500A06811F0C3FE512807D00D4B63
:10147000984213D0502813D00B4816F0C3FB012616
:101480000A4908200BF049FE00230400310028001F
:101490001A0015F0DEFE6060200076BD0026EFE742
:1014A0000226EDE7DE02000070300310B4300310B6
:1014B000F0B591B007000E000392FFF7B9FF036982
:1014C0000293C3680193012F45D97468062C09D093
:1014D000A30704D1344B226825009A4204D000208F
:1014E00016F05AFD019D029C022F09D0B368062B0D
:1014F00006D09A07F3D12C4A19681D009142EED10B
:10150000032736683E4234D1284B32689A4230D1A4
:101510000461FFF78DFF7368C5603B4205D1244A23
:101520001968914201D15B685C6004A80BF0BCFDB6
:10153000002813D1706815F085FE04000BF0A8FD9B
:10154000FFF776FF029B0361FFF772FF019BC36009
:10155000200011B0F0BD019D029CD1E7FFF768FFAC
:10156000029B0361FFF764FF019BC36005980BF0CA
:10157000AFFD0122300004A90CF0DEF8039B002B24
:101580000BD1049808F023F90123039322002B00C8
:10159000039915F05EFE0400DAE70023059A04992A
:1015A000F02008F007F9F1E728590310B4300310D0
:1015B0009061031010B50222FFF77AFF10BD10B53D
:1015C0000122FFF775FF10BD10B50022FFF770FF75
:1015D00010BD0000F0B587B0002806D159495A481F
:1015E00009F020FF062007B0F0BD0E68574B9E4261
:1015F00062D1002108000FF0DAFB002405000390FF
:10160000534B5A68944219D3039F524E3578002D9C
:1016100020D1514A03A901200FF0C2FA039805AA6C
:1016200004A90FF0DBFB049B03339B080193019B90
:10163000454EAB421DD130004849D1E79B68E200DE
:10164000D158002904D0042902D028000FF0B6F99F
:101650000134D5E7300031F09FFBC11E040030009B
:1016600011F048FA0134010038000FF0A7F93619DB
:10167000CCE72F00059BBA00D05811F0CFFD010038
:10168000300009F0CFFE019BFF18049B9F420DD252
:1016900012231C1A002C07DD30003149013C09F0EF
:1016A000C1FE002CF8D1E5E71234F3E730002D49F4
:1016B00009F0B8FE0135BAE730000BF035FD040043
:1016C000214D2949280009F0ADFE002130000BF022
:1016D00059FD2800E28825490AF02CFA244B9C4247
:1016E00026D174680434002663689E4200D379E7EB
:1016F000A368F2009B181F68002F17D0022F15D087
:101700005B681C492800019309F08CFE0021380019
:101710000BF038FD1849280009F084FE00210198DB
:101720000BF030FD28000F4909F07CFE0136DBE7A5
:10173000124B9C4200D13400A36B1C1D002BD2D154
:1017400050E7C0462EE70310DC4C03106213000084
:101750000868031054FD0310A4590310F03003105F
:1017600004D303106FD80310143103101C3103107D
:101770000469031003D303102C310310387B0310CA
:10178000D02212061268024B9200D0587047C04611
:10179000F867032010B508490822040031F0F4FA74
:1017A00001002000002904D10A00083007F004FBE2
:1017B00010BD1DF0DDF8FBE74031031010B504004B
:1017C00017F05DFBFFF7E6FF02280ED061686D227F
:1017D0000239200017F0BEFB200017F050FBFFF786
:1017E000D9FF023843425841400010BD10B50400F3
:1017F00017F045FBFFF7CEFF012806D02000034974
:1018000017F09CFB2000FFF7D9FF10BDA6FB0310CB
:10181000F0B587B000AF7A600400B960FFF7B0FFA1
:10182000BA2100690DF08AFA0600FFF7A9FF0069E6
:1018300000222649043008F06FF814230500F91837
:10184000300011F04FFD6A1E954101007B69641B59
:10185000C318002C05D18B420BD11D491D4815F032
:10186000E3FB9942F7D2013B1A782E2AF9D1013CC9
:10187000EFE76A465E1A7B681B68F418FB60631C1E
:101880003B600733DB08DB00D31A9D466D46320010
:1018900028002FF04BFAFB68002B09D02E23AB5504
:1018A000BB6801361968FA68A8192FF03FFA3C683E
:1018B0002100280014F092FE14F06BFFBD46BB68B7
:1018C00018607B681C6007B0F0BDC046620600006F
:1018D00049310310545D031070B504008EB0100040
:1018E0000D0014F03BFF0222C0000243B82120008B
:1018F00015F008FEFFF744FF036966680093FFF7E1
:101900003FFFC3680193FFF73BFF0661FFF738FF16
:10191000C66002A80BF0C8FB021E11D121002800EE
:1019200003F050FF15F08EFC0BF0B2FBFFF728FF21
:10193000009C0461FFF724FF019CC4600EB070BDE1
:10194000FFF71EFF009C0461FFF71AFF019CC460B3
:1019500003980BF0BDFB0000F0B5050085B0080052
:101960000E0017F08CFA08221F49040031F00CFA1F
:10197000002816D1270008376A46380001A907F069
:101980001BFA019B022B0CD1009B2A001900083284
:1019900011C911C23A0028009968FFF79DFF05B0F0
:1019A000F0BD7368E318033B1B786D2B08D12A0048
:1019B000210002A814F09CFD220003990298ECE794
:1019C000200007F004FF022204000368B821DB00B6
:1019D00028001A4315F096FD6A68012113002000C3
:1019E00015F037FCDBE7C04640310310F0B50300CB
:1019F000B1B00868032B0AD9CA680592042B22D01B
:101A00000B695C10002B23DA002016F0FBF807A905
:101A100011F068FC062308900593079B002BF3D078
:101A2000002501262F00802110AA0CA817F0CAF962
:101A30000395079BB34217D2059B062B00D0039753
:101A4000039831B0F0BD07A911F04CFC0890E4E711
:101A500007A911F047FC0890002CDED0200007AA4F
:101A600008A9FFF7D5FED8E7089CB34202D0A35DD2
:101A70002E2B52D13100200014F0B0FD711B0190CB
:101A8000601914F0ABFD049001980FF0A1FB040065
:101A9000002F00D082E04E480AAA09A90FF09EF953
:101AA000099B0297002B5DD1019814F072FE010092
:101AB0000CA817F043FA0CA8FFF798FE051E55D0A6
:101AC000002C24D101980FF03BFB0400012D7AD1AA
:101AD0000D990E9811F00EF8CC210200200015F09F
:101AE00011FD0CA83B490D9D17F028FA0CA8FFF733
:101AF00065FE022803D120000CA9FFF72DFF0D95EC
:101B0000002F04D022003800049915F0FBFC039B41
:101B1000002B00D103942700751C013689E70023B0
:101B20000D93029B0A9A9B0098580BA911F0DAFBBF
:101B30000B9A0100002A06D00CA817F001F92F21FA
:101B40000CA817F0B2F9019814F023FE01000CA8BC
:101B500017F0F4F90CA8FFF749FE051EB0D1029B5F
:101B600001330293099B029A9A42D8D3002CCED11A
:101B700075230E9C0498237014F00BFE0100601C6A
:101B800030F0C2FF200014F0E9FD0FF0FBFA041E54
:101B9000BDD111491148019A15F050FA2F210CA816
:101BA00017F083F9049814F0F4FD01000CA817F065
:101BB000C5F90CA8FFF71AFE0500002CA2D10028D9
:101BC00000D07FE7E5E70CA9FFF7C6FE98E7C0461F
:101BD000C06C032045F7031067310310545D0310F8
:101BE00007B5CC216A4615F0A7F90098431E984125
:101BF000C0B20EBD036A1B8B012B02D0C3685918FB
:101C0000C160704710B50400836A406A9B6F9847B3
:101C1000238B226A01339BB22383918C994200D299
:101C2000938410BD10B50400038B013B0383836ACA
:101C3000406A0433DB6F984701212000FFF7DAFF89
:101C400010BDF0B589B004000D0005920693002B7D
:101C500003D00823CA8A1343CB823022059BEB832F
:101C6000236AD98A0A43DA821B78002B44D1A36AFB
:101C70002900B0331E68059A069B606AB04709B018
:101C8000F0BDD26AF300D118D35C0791053B012B5C
:101C90001FD8002318E0049BEA6ADB00D018D35C4D
:101CA000062B0FD1079B5968436899420AD1079BBD
:101CB000606A5A88A36A1B691F000023B847039B08
:101CC00001330393049B013304932B8D049A9342B5
:101CD000E1DC0136226A138DB342D2DC039AA36A97
:101CE000606A002AC3D0069AB43300921C682900A7
:101CF000059B039AA047C2E700260396EAE710B5C2
:101D00000400836A00210833DB6F406A9847A36AA6
:101D1000606A10211B6B9847A36A606AC8331B680E
:101D20000121984703212000FFF764FF10BD70B523
:101D30000400836A00225B6C406A9847A36A606A69
:101D4000BC331D6800231A001900A8472000FFF7C4
:101D5000D6FF70BD10B5836A896800221B6D406A8A
:101D60000909984710BD10B5836A8968DB6B406A22
:101D7000984710BD10B50400080011001A0016F0B5
:101D800051FA236A436000238360E369002B01D189
:101D9000E06110BD1A009B68002BFBD19060F8E752
:101DA000F0B58BB0040000AF00294FD08B0757D19E
:101DB0004B680D00DBB2682B05D00F230B40022BC4
:101DC00054D1090943E0CB681B0913608D68002DCD
:101DD0003CD00F232B40022B46D001232E007B60EA
:101DE0006B687D611B0AFB60013BFB61FB689B002C
:101DF0005B193B603B689E423DD16A46FB690733F5
:101E0000DB08DB00D31A9D46BB603B610023BB614E
:101E1000BB699A002B000833985824230009F9184D
:101E200014F0C1FC7E6A0100320038692EF07EFF9A
:101E30003B699E19BB690133BB61BA69FB68934278
:101E400022D0731C3B612E233370E1E70121116026
:101E5000A36A0022DB6A606A9847BD460BB0F0BDFA
:101E60000F230D000B40AAE72909F1E78B681B0936
:101E700013600023B2E7B0680436000914F080FC58
:101E8000FB691B18FB61B5E7F969B86814F0A6FB9C
:101E9000A36A0100DB6A0022606A98477B68002B16
:101EA000DBD07B693A6804337B619342D5D07B6990
:101EB00000229968A36A606A1B6D09099847F0E7D8
:101EC000002906D0032382680B40134301D10B681D
:101ED00083607047F7B507000C001E0000290DD085
:101EE00003230D001D40194211D14B68D9B2914214
:101EF0000DD11B0A0193019B9D4200DBF7BD23001E
:101F0000AA00083338009958B0470135F3E721009B
:101F10003800B047F2E70000F8B50F0011001A00D2
:101F20000023040085780669837003610F4BFFF777
:101F3000D1FF6368002B18D1618A00290BD0228A57
:101F4000002A08D1A36A606A9C331B689847A36A79
:101F5000606A1B6C9847238A39002000628AFFF769
:101F600070FE6B1E9D412661A570F8BD552B0010BB
:101F700070B5437804000D00012B06D1036A0A00F6
:101F80001B8B0221FFF7F6FE2861AA6829694C2302
:101F90002000FFF7C1FF70BD70B513004278050047
:101FA0000C00012A04D10A000721FFF7E3FEA0611B
:101FB000A669280031004623E268FFF7ADFFB08A2A
:101FC00070BD000010B59D22024B8968FFF782FFAB
:101FD00010BDC0464130001010B56B22024B89681D
:101FE000FFF778FF10BDC04679480010436870B510
:101FF0000D0004001100002B07D104480DF0C2F8B9
:10200000290060602000FFF75BFF70BD385B0310A4
:10201000F0B50D000162002142702B7891B004925E
:1020200004008D4AC160072B2DD1049B012B05D0E4
:10203000036B021D1B680499C06A98476378EF68B8
:10204000032B10D1380046210FAA0C3030F054FE7B
:10205000236B01009B680F9AE06A98476368688366
:10206000002B00D0BAE03969002946D00F230B407D
:10207000022B3ED10B09752B42D009D83E2B41D003
:102080005E2B3AD0754A2000FFF7B0FF11B0F0BDCB
:102090000320734A07909342F4D17B6919210DAA5A
:1020A0000CA80C9330F028FE00230A900893089B9C
:1020B0000A9A934228D16378012B16D9236B07998A
:1020C0005B68E06A98476378042B0ED1079B206A0F
:1020D000E26A0393438B052102930023019300934B
:1020E00093680069D26803F055FB6368002B75D1D3
:1020F000CCE720005B4AFFF779FF02230793CCE788
:102100000023FBE70123F9E7089B9B000693069A4F
:102110000D9B9958FF224B681340082B02D1089B56
:102120000133C3E7052B01D04F4AACE7CB68002B46
:10213000FAD1FF208B685A6802402C2AF4D19E689D
:102140001D3A3240022AEFD1DD68002DECD0AB07FA
:10215000EAD16B680340302BE6D12800A4210EAAF7
:10216000083030F0C9FD414B360905909E421CD124
:10217000012805D10F210E9A13680B40022B04D0C1
:102180003B4A0D9B069959587DE7E1684B1CE3607B
:10219000049B012B1ED01268236BE06ADB681209D6
:1021A0009847002816D1334AEBE79223FF339E422B
:1021B00017D1059B012B04D10E9B1968059B194271
:1021C00001D12D4ADDE7049B012B03D0E06A4910C1
:1021D000FEF7AFF96368002BA1D02F003B68A36026
:1021E00054E7CC23FF339E4229D1059B012B06D90E
:1021F0000E9B01221B681E001640134201D11F4A8C
:10220000BFE7049A012AE5D05B100B930E9AB30046
:1022100098580FA930F030FD002801D1184AB0E7D6
:10222000E36A0F9809930EF0DCF90B990200099804
:10223000FEF786F9059B0136B342E7D1CAE7049B56
:10224000012BC7D0236B31001B69059A9C46E06ABD
:1022500066460E9BB047BDE788310310AC310310D2
:102260001E030000B9310310E13103103F020000EA
:102270000432031020320310303203104C320310AA
:102280007132031010B5024AFFF7B0FE10BDC04610
:10229000933203104B6870B5DBB20400092B10D1E8
:1022A000858A094B9D4203D12000084AFFF79EFE14
:1022B000638B228B2900D21AA36A606A5B6F9847EE
:1022C00070BDC58AEDE7C046FFFF0000B0320310C5
:1022D00070B5050000290FD00F230B40022B0DD144
:1022E0000C0920000AF094FE002806DA22000549B5
:1022F00005480CF0D1FF6860002070BD034AFFF76D
:1023000075FEF9E7D0320310845A0310C031031070
:10231000F0B5437804000D0085B0012B0BD14B685C
:10232000DBB20093102B08D0036A1B78002B04D17A
:10233000214AFFF75BFE05B0F0BD28006D2103AA1E
:10234000083030F0D9FC00270190019BBB42F2D04D
:10235000039BBA00D158206A0022090915F09FFF9B
:10236000009A06000378102A10D1002B02D0134ADD
:10237000032B17D1032333707168206A15F0B0FF67
:10238000002801D0032303700137DEE7002B0ED1B4
:10239000013303700100206A15F0ABFF3378084A5F
:1023A000012BF1D129002000FFF720FEECE7062BDE
:1023B000EAD0044AF6E7C046E232031007330310BE
:1023C00026330310443303109C460223F7B5040060
:1023D000006A0192C68A0D001E4205D0354A2900C6
:1023E0002000FFF703FEF7BD0F221140022918D18C
:1023F000A378002B11D0838B013383830027290915
:10240000012300930029EED0002215F048FF037845
:102410000600002B37D0284AE1E7438B0133438382
:10242000ECE76968019BC9B22F0099420CD1A378EF
:10243000A968002B04D0838B013383830909DFE76C
:10244000438B01334383F9E7614515D1A378002B12
:10245000C4D10121A170A9680029C4D004273E433A
:102460000A40C682022A03D1F9401F000323C8E7AD
:102470000F0089680909F9E70223A9683343C38279
:1024800009090523BDE704230370009B4370236AF9
:102490001B8B032BA7D1019B482BA4D1002FA2D0CB
:1024A0002000F968FFF714FF03017078184370707B
:1024B00099E7C046653303107433031010B5492300
:1024C0004822FFF781FF10BD10B54F234E22FFF7C2
:1024D0007BFF10BD10B50B004178026A012904D1C1
:1024E0001900100003F00BF910BD816A406A203119
:1024F00003F015F9F8E710B5040062780B00006AE4
:10250000012A02D115F0CBFE10BDA16A02001031E4
:10251000606A03F004F9F7E770B505000C1E1AD0E5
:10252000CB0705D5836A49105B6B686A984712E050
:102530008B0714D00F2309092340022B09D0062B47
:102540000AD0062907D0836AC9B21B6B406A984734
:1025500001E0FFF7D0FF70BD836A9B6BE5E7836AFC
:102560000968DB68406A98476368034ADBB29B00EE
:10257000210028009B58D9E79C350310F0B50400D2
:102580000D001700032685B00193280030F02CFBC6
:10259000002805D0002F1DD1A36A01999B6E48E049
:1025A000280030F0C1FA002802D0002F12D0F3E743
:1025B000002D4DD035424BD16B681A0A0292FF2292
:1025C00013401E2B1CD1002F1ED0029B9E0076199B
:1025D000AE420DD105B0F0BD29000122B000083196
:1025E0000958039B20007A40FFF7C8FF013610E02E
:1025F000A9683A002000019BFFF7C0FF0435E7E718
:102600001F2B19D1002FE0D00026E368039301337C
:10261000E360029B013BB342DEDC0299019B013186
:10262000890049593A002000FFF7A8FFA36A0399DF
:102630009B6A606A9847CDE7202B03D11F3BAD68AA
:102640005F40A2E72D2B03D1AB68002BADD1A1E7F2
:1026500029002000FFF760FFA36A3900DB6E019AB2
:10266000606A9847B6E70000036A70B51B780400FB
:10267000072B05D0022B03D0144AFFF7B7FC70BD1F
:102680008D68002D0FD1A36A10211B6B606A9847DB
:10269000A36A606AC83300211B68984701212000A3
:1026A000FFF7A8FAEBE7AB070BD16B68DBB2AF2BF8
:1026B00007D12000A968FFF72FFF2000FFF71FFBBD
:1026C000DDE729002000FFF727FFE1E7893303104A
:1026D00070B5437804001500CE68012B06D1036A5B
:1026E0000A001B8B2900FFF745FB706100232000C7
:1026F00071691A00FFF7A5FA2000F168FFF70CFFD7
:10270000062D05D1A36A00210833DB6F606A984764
:10271000A36A0121B8331D680023606A1A00A84724
:1027200070BD70B50D000400C968FFF7F5FEA9681B
:102730002000FFF7F1FE70BD4B6870B5DBB20400FE
:102740000D00342B11D18968FFF7E6FEED68AD6806
:10275000002D10D1A36A10211B6B606A9847A36AF1
:1027600004229C3302211B6819E0836A10211B6B31
:10277000406A9847EBE70326354225D16B68DBB208
:102780009A2B0FD1A36A10211B6B606A9847A96826
:10279000002910D10422A36A02319C331B68606AAD
:1027A000984770BD9B2B0FD1A9682000FFF7B4FE9E
:1027B000EB689968ECE72000FFF7AEFEA36A0422FD
:1027C0009C3331001B68EAE729002000FFF7A4FED4
:1027D000C5E710B504008968FFF79EFEA36A0021D3
:1027E000DB6C606A984710BDF0B58D6887B0040057
:1027F0000292002D09D1002A26D002222900836AE4
:102800009C331B68606A98471EE003272B003B40FF
:1028100001933D4200D08EE0FF266B683340372B9A
:1028200014D1029B002B06D0836A02229C33012123
:102830001B68406A984720002900FFF76DFEA36AD5
:10284000606AA0331B68984707B0F0BD9F2B72D118
:10285000E86843683340A12B5DD1A221083005AA66
:1028600030F04AFAA9680390002927D0394225D1CF
:102870004B683340372B21D1029B002B06D0A36A33
:10288000411C9C3302221B68606A98472000A9689B
:10289000FFF742FEA36A606AA0331B6898470126CF
:1028A000FF27019B039A93420DD1002ECCD1190032
:1028B000A36A03229C331B680131A3E72000FFF7C2
:1028C0002BFE0026ECE7019A059B9200D1580029C7
:1028D0000DD0032319420AD14B683B40372B06D158
:1028E0002000FFF719FE002E0CD1184A05E0200049
:1028F000FFF712FE002E0AD0154A29002000FFF72C
:1029000075FBA1E7A36A606AA0331B689847019B27
:1029100001330193C5E7AB68002B06D03B4204D1DD
:102920005B6804223340372B00D0052229002000A9
:10293000FFF7CEFE88E729002000FFF7EDFDA36A30
:1029400003229C3301211B685CE7C046BF330310A0
:10295000A233031010B50122FFF746FF10BD70B57A
:102960000D00C9680400FFF7D7FDAB6802211B0901
:10297000DBB2342B01D0403BD9B2A36A606A9433F6
:102980001B68984770BDF8B54F680C008968050052
:102990000026FFF7C1FD3F0A0C340236B74200DCC7
:1029A000F8BD61682800FFF7B7FD2168AB6A090927
:1029B000253998331B68686AC9B298470834ECE730
:1029C000F7B54E680D0033000D3BDBB2896804009B
:1029D00001930127FFF7A0FD360AB74200DBF7BDE0
:1029E0002B00BA00083399582000FFF795FDA36A21
:1029F000019998331B68606A98470137EDE7F7B58E
:102A00004E680D0089680400FFF786FD0023360A32
:102A10000093032E03D9E36800930133E360012799
:102A20000C3501957B1C9E4221DC032E1ED9E568E6
:102A3000606A6B1CE360A36A29009B6E9847A36AD7
:102A400000999B6A606A9847A36A01219B68606A43
:102A50009847A36A606A1B6E9847A36A606ADB6D39
:102A60009847A36A29009B6A606A9847F7BD019B53
:102A7000200059680237FFF74FFDB74207DAA36A13
:102A8000606A5B6D9847A36A606A5B6E98470F2225
:102A9000019B606A1968A36A0A4098331B680A2A76
:102AA00013D10909CAB20621262A01D0353AD1B27A
:102AB0009847B74205DAA36A00211B6F009A606A43
:102AC0009847019B08330193ACE7FF254A682A40E9
:102AD000852A01D13221EBE78A680721002AE7D055
:102AE0003321E5E710B504008968FFF715FDA36AF7
:102AF000032194331B68606A984710BDF7B54A6894
:102B00000E00D3B21E3B59424B4104000025C7685A
:102B1000DBB201937B1CC360130A0093009B9D42B0
:102B200005DBA36A39009B6A606A9847F7BD3300EA
:102B3000AA00083399582000FFF7EEFC009B0135EE
:102B40009D42EEDAA36A3A001B6F0199606A9847CA
:102B5000E4E700000F2370B50B400400022B12D0F5
:102B60004B68DBB2492B06D04F2B04D04A2B01D047
:102B7000502B03D170BD0123A370FBE7482B0DD16F
:102B80000D69002D0CD1A378002BF3D1638A002BA3
:102B9000F0D020001C4AFFF729FAEBE7CD68F0E7F8
:102BA000A3788E68002B27D0238A01339BB223821F
:102BB000012B0FD1618AA36A606A002919D09C3366
:102BC00000221B689847A36A02229C3300211B68DD
:102BD000606A984729002000FFF79EFCA36A606A9C
:102BE0009B6B31099847A36A606AA0331B689847BA
:102BF000C0E71B6C9847E6E7638A29000133200091
:102C00006382FFF789FCB5E7DE330310F7B50400F4
:102C10000E00C568CF686B1C0193AB1C0022B9681D
:102C2000C3602B00FFF7AAFCB1682000FFF774FC1B
:102C3000A36A691C606A9B6E9847A36A2900606A50
:102C40009B6A98470121A36A606A9B68494298473A
:102C5000F9682000FFF760FCA36A01999B6A606A2B
:102C60009847F7BDF0B5436985B00393C668438BB9
:102C7000771C0293B31CC360038B04008682C78257
:102C8000438388680D002FF0AFFF002821D1E3684F
:102C9000A86801930133E3602FF046FF002804D1B8
:102CA000A36A39009B6E606A9847A36A01999B6A80
:102CB000606A98472000E968FFF72EFCA36A390094
:102CC0009B6A606A984701222000019BA968FFF770
:102CD00055FC039B20006361029B29696383FFF716
:102CE0001BFCA36A31009B6A606A984705B0F0BD7F
:102CF000F0B5C36887B001930133C36004008868EE
:102D00000D002FF071FF021E20D1E76820007B1C10
:102D1000A968E3603B00FFF731FC2000E968FFF79A
:102D2000FBFBA8682FF000FF00281ED12B69002BA9
:102D300002D16B69002B04D0A36A01999B6E606A73
:102D40009847A36A39009B6A606A984728007121F6
:102D500005AA10302FF0D0FF00260390039B9E425F
:102D60000AD120006969FFF7D7FBA36A01999B6A22
:102D7000606A984707B0F0BD059BB200D758B868A5
:102D80002FF032FF021E1BD1E368200002930133B3
:102D9000B968E360029BFFF7F1FB2000F968FFF7D9
:102DA000BBFBB8682FF0C0FE0028DED1A36A0199F2
:102DB0009B6E606A9847A36A02999B6A606A98470B
:102DC0000136CBE7E822F8B5174B52009F580400B4
:102DD0000D00002F27D1C668D03A731CC3608968E4
:102DE0003300FF3AFFF7CAFBA36A1F2101225B6988
:102DF000606A9847E96800290AD02000FFF78CFB39
:102E0000A36A3A00B8331D6801213B00606AA847F5
:102E1000A36A0121C4331B68606A9847A36A310022
:102E20009B6A606A9847F8BD206C032070B58D6876
:102E30000400002D06D12900836AC4331B68606A30
:102E4000984770BDAB070FD16B68DBB25E2B0BD11F
:102E5000A968FFF761FBE9682000FFF75DFBA36A43
:102E60000221C4331B68EAE729002000FFF754FB66
:102E7000A36A0121C4331B68E1E710B50400896827
:102E8000FFF74AFBA36A606ADB6D984710BD00003C
:102E9000F8B5036A04001B78072B03D01B4AFFF721
:102EA000A5F8F8BD8D68002D0AD1836A10211B6B2F
:102EB000406A9847A36A606AC0331B689847F0E786
:102EC00003232A001A401D421ED16B68DBB21B2B64
:102ED0001AD1C668EF68731CC360B9683300FFF786
:102EE0004DFBA9682000FFF717FBA36A606AC03397
:102EF0001B689847A36A31009B6A606A9847F96823
:102F00002000FFF709FBD5E72900F9E70C3403108F
:102F1000F8B505000C004E68360AB700CF19BC4260
:102F200007D1AB6A31009C33686A00221B6898475E
:102F3000F8BDA1682800FFF7EFFA0434EFE78968CD
:102F400010B5002906D1836A0A009C331B68406AC9
:102F5000984710BD4B681B0A022B0CD1CB68002B85
:102F600009D09A0707D15B68DBB2AC2B03D10622EC
:102F7000FFF7AEFBEDE7FFF7CBFFEAE7F8B505009B
:102F80000E0000244F683F0ABC420FDA3300A20053
:102F9000083399582800FFF7BFFA6B68002B06D05A
:102FA0000234A4002800A159FEF78AFFF8BD0134BD
:102FB000EAE710B50400FFF7E1FFA36A2221983386
:102FC0001B68606A984710BD70B58D680400002DBD
:102FD00007D101222900836A9C331B68606A9847E5
:102FE00018E00322154221D16B68FF211800084028
:102FF00092281BD11B0A022B0DD1EB68002B0AD0A3
:10300000134208D15B680B40AC2B04D1290020008F
:10301000FFF75EFB70BD29002000FFF7AFFFA36A3A
:1030200069689C3301221B68090AD7E72900200040
:10303000FFF772FA0122A36A11009C331B68CDE7E7
:103040000F23F7B50B4005000C00022B03D1090933
:10305000FFF740FAF7BD002965D00327394262D156
:10306000FF224B6813402C2B3BD18968FFF754FAA1
:10307000E668002E57D0310039403E4253D1FF2040
:103080007268330010408E280AD10F00130A019392
:10309000019B013BBB4211DC019B01339B009B590F
:1030A0005A68D2B2312A12D128009968FFF734FA4F
:1030B000AB6A0221DB6C686A9847CBE73300BA0041
:1030C000083328009958FFF727FA0137E0E7322A3A
:1030D00029D19968AB6A686A1B6D0909303A98472B
:1030E000B8E72D2B1FD18C68002C1CD062682C3BBC
:1030F000120A022A0AD1E268002A07D03A4205D110
:103100005368FF221340AC2B0DD0012362685E1C74
:10311000013B120A93429DD2B300E1582800FFF709
:103120008FFF3300F2E721002800024AFEF75EFF1E
:1031300090E7C0462634031010B50B004178026AB0
:10314000012904D11900100002F0D9FA10BD816ADA
:10315000406A183102F0E3FAF8E70000F0B50327FF
:1031600004000D00160085B039420ED00F230B402D
:10317000022B16D109099E43012E03D0FFF7DCFF75
:1031800005B0F0BDFFF7B7F9FAE74968FF200B007B
:1031900003402D2B00D18DE009D8062B0CD02C2B11
:1031A00013D029002000594AFEF720FFE8E72E2B14
:1031B00000D196E09D2BF4D1002EF2D12A00090A0D
:1031C0000832200000F00CF9DAE7022A03D02000D0
:1031D000A968FFF7A1F9EB680193002BE1D0032365
:1031E0000198019A18401A42DBD117005268FF215A
:1031F00013000B408E2B3CD1130A5A1E03920290EF
:10320000022E19D101339B00DF597B680B40312B13
:1032100078D1A36A606A5B6E9847A36A0121DB6C70
:1032200024E0029B20009A00019B08339958FFF785
:1032300073F9029B01330293029B039A9342F0DBE2
:103240001300019A02339B009F587B68DBB2312B3D
:1032500014D12000B968FFF75FF9A36A012EDDD110
:103260009B6D606A98470021A36ADB6C606A98478F
:1032700086E7312B02D1022ECBD0EAE7322B90D158
:10328000A36A606A012E09D15B6D98470022A36A88
:10329000B9681B6D0909606A984771E7022E03D16E
:1032A000A36A606A1B6E9847B968A36A01221B6D06
:1032B0000909F0E7AA68002A00D172E7002E00D0C1
:1032C0006FE75168090A022909D1D368002B06D09B
:1032D000980704D15B68DBB2AC2B00D161E7083200
:1032E0006FE7002A00D05CE7A9680A1E00D168E7F2
:1032F000394203D14B680340922BE2D02A000121CE
:1033000008325EE7322B00D04BE7C9E73E340310AA
:10331000F7B504000D00C6681F00731C0193B31CB1
:10332000C360836A31009B6A406A00929847A36A2F
:10333000606A88331B68711C9847A96800222000C6
:10334000FFF70CFF2D69002D2CD100992000FFF70D
:10335000E3F8236A1978A36A06291CD1C8331B68CD
:103360002900606A984720000121FEF743FCA36A08
:10337000606ADB6D9847A36A3100606A9B6E98476C
:10338000A36A0199606A9B6A9847A36A606A8C3352
:103390001B689847F7BDBA00A4331B68606A053202
:1033A0009847E8E7FF226B681340AD2B07D1A96867
:1033B000330000222000FFF7E1F8ED68C3E72000AA
:1033C000E968FFF7A9F8A36A606A08330121DB6F97
:1033D000984729002000009A7B1CFFF799FFCAE755
:1033E000F7B50126050017000C0000910192764206
:1033F000002C16D1731C05D1AB6A0099A8331B6849
:10340000686A9847009B9C4228D0019AA300D15833
:103410000022A64200D189682800FFF79FFE0134F0
:10342000F0E73968002912D0032319420FD1FF2297
:103430004B681340222B0AD101360BD1009B686ADE
:103440001E1BAB6A3100AC331B68621E9847043701
:10345000013CCDE72800024AFEF7C8FDF7BDC04693
:1034600059340310F0B585B00400160001910293A1
:10347000002904D10299FFF74FF805B0F0BDC768E5
:103480007B1CC3601568002D2AD003232A001A4034
:1034900003921D4224D16B68DBB27B2B20D1A9683B
:1034A000FFF73AF839002000039AFEF7ABFB200043
:1034B000039AE968FFF752FE0199321D2000029B32
:1034C0000139FFF7CFFFA36A3900DB6F606A9847C5
:1034D00020000321FEF78EFB2000FEF7A3FBCCE7C4
:1034E00029002000FFF718F8200000223900FEF71D
:1034F00089FBA36A606ADB6D9847DDE737B5050095
:1035000008000C0001AA7A2108302FF0F5FBE368CF
:103510000100019A2800FFF7A5FF37BDF0B58A68C2
:103520000D00CB680F2104008BB00A40022A00D0A6
:1035300002E1002B00D1FFE003273B4200D0FBE07B
:10354000FF205A6802402C2A00D0F5E09A6811400A
:10355000022900D0F0E012097C2A00D0ECE0DA6801
:1035600053680340302B00D0E6E09368A23109AAEB
:1035700008A808932FF0C0FB431E022B00D9DBE004
:10358000099B1A680192012800D1CAE0022800D1E3
:10359000C5E09F68FA0700D4CEE07A1000D1CBE0F6
:1035A0005E68019B002B08D09B0706D1019B5B68DE
:1035B000DBB2A63B022B00D8BEE0002E07D0B3073B
:1035C00005D17368DBB2A63B022B00D8B4E0AB6830
:1035D000320004932B6905936B69E5680393636973
:1035E000A5820793638B0693AB1C02936B1CE3824B
:1035F000238B63832B1DE36001231A4002921E423A
:1036000003D131002000FEF787FF20000199FEF76B
:1036100083FFA36A606A9B6EE91C9847A36AA91C92
:103620009B6A606A9847A36A606A5B6D984700224C
:1036300020000499FFF792FD20000599FEF76CFF2A
:10364000A36A606A9B6A691C984739002000FEF7EC
:1036500063FFA36A0E2198331B68606A9847A36AC8
:10366000606A9B6AE91C9847029AA36A002A5BD1A8
:103670009B6D606A9847A36A606A1B6E9847A36A4D
:10368000002198331B68606A002F00DA01210026B0
:103690009847A36A0121DB6E606AAA1C9847079BC2
:1036A0006361069B6383039BB3421ED0A36A606A77
:1036B000DB6D9847029BB34203D1A36A606ADB6D5E
:1036C000984720000399FEF727FFE668606A731C9D
:1036D000E360A36A31009B6E98470121029B606AF8
:1036E0005940A36A01319B689847A36A29009B6AE5
:1036F000606A9847A36A606ADB6D9847029B002B5B
:1037000003D1A36A606ADB6D9847039B002B04D04A
:10371000A36A31009B6A606A98470BB0F0BD03272B
:103720003EE7019E019048E7606A5B6D9847310073
:103730002000FEF7F1FEA2E76369E6680293638B5F
:10374000771C0193238B200063831D4BE96833436F
:10375000A382F31CE360E782FEF7DEFEA36A606AE1
:1037600008330121DB6F9847A36A3900606A9B6ABE
:103770009847A36A606A88331B68B11C9847002287
:103780002000A968FFF7EAFC20002969FEF7C4FEC3
:10379000A36A3900606A9B6E9847A36AB11C606A8D
:1037A0009B6A9847A36A606A8C331B689847029BA0
:1037B00020006361019B69696383FEF7ADFEA7E7A3
:1037C0000080FFFFF0B587B004001700029103935B
:1037D000002904D10399FEF79FFE07B0F0BDC6682B
:1037E000731C0493B31C0193F31C0093331DC3603B
:1037F0001568002D00D1EFE003232A001A4005923E
:103800001D4200D0E8E06B68DBB27B2B00D0E3E028
:10381000A968FEF781FEA36A606A5B6D9847A821DC
:103820002000FEF784FA2000059AE968FFF796FC6D
:10383000022231002000FEF7E5F9A36A606A032145
:103840009B68984702993A1D2000039B0139FFF7B6
:10385000B9FF0321A36A606A9B6849429847A36A3B
:103860001021606A1B6B9847A36A606A1B6E9847B9
:10387000A36A606A711C9B6E9847A36A3100606AF4
:103880009B6A9847A36A606A5B6D9847A36A0122A6
:10389000606A21215B699847A36A606A98330821AE
:1038A0001B689847A36A019A0021606ADB6E9847FB
:1038B000A36A606A5B6D9847A36A606A5B6E98470B
:1038C000A36A606A1B6E9847A36A0022A921606AF6
:1038D0005B6C9847A36A606A5B6E9847A36A606AEC
:1038E0005B6E9847A36A606A5B6D9847A36A002283
:1038F0000A21606A1B6D9847A36A606A1B6E98472D
:10390000A36A606A10211B6B9847A36A0321BC332A
:103910001D680023606A1A00A8472000FEF7EFF92F
:10392000A36A009A0021606ADB6E9847A36A606A06
:10393000DB6D9847A36A606A10211B6B9847A36AE6
:103940000099606A9B6E9847A36A606A02219B682F
:103950009847A36A0199606A9B6A9847A36A606A5C
:103960005B6E9847A36A606A5B6E9847A36A049986
:10397000606A9B6A9847A36A0022606AA9215B6C0F
:103980009847A36A1021606A1B6B9847A36A606A14
:103990005B6D9847A36A606A5B6D9847A36A0321D1
:1039A000BC331D680023606A1A00A8472000FEF798
:1039B000A6F9A36A606ADB6D98470121A36A606A71
:1039C0009B6849429847A36A606A9B6A0099984736
:1039D0002000FEF727F900E729002000FEF79CFDF4
:1039E000A36A606A5B6D98472000A821FEF79FF9E3
:1039F000A36A606ADB6D98471AE7F7B5CD680400E3
:103A00000E00002D2CD10378002B17D0036A1D78EF
:103A1000002D13D1D121FEF76EFDB1682000FEF715
:103A20007BFDA36A2A00B8331E6801212B00606A5F
:103A3000B047A36A606ADB6D984710E0B1688B07F6
:103A400007D00F230B40022B09D12000FEF764FDA5
:103A5000EFE70029F9D04B68DBB23A2BF5D1F7BD7F
:103A6000AB0750D16B68DAB25B2A10D1ED68002D3C
:103A700049D1006A0378072BF1D1896808330B40DC
:103A8000022BECD10909573A14F009FCE7E7562A52
:103A900013D1553A8968FFF761FB2000E968FEF70A
:103AA0003BFDA968A36A09093F3998331B68606A1E
:103AB000C9B298470222B16889E0572A23D11B0A6C
:103AC0005F1E01339B005959FEF726FD002F03DDD1
:103AD000A36A606A5B6D9847B16800222000FFF717
:103AE0003DFB0026BE42BADA0136BE4203DAA36AC3
:103AF000606A5B6D9847291DB30000222000C958F9
:103B0000FFF72CFBEEE703210D4264D16B68FF2227
:103B100018000193104006285DD1B768002F5AD0D5
:103B20000F4258D1786803001340062B53D1030A83
:103B300000930098019B1B0A83424CD10300023B77
:103B4000012B48D8BB68002B05D00B4203D15B6822
:103B50001340222B3FD0FB68002B05D09A0703D1DE
:103B60005B68DBB2222B36D0009B022B08D03B696E
:103B7000002B05D09A0703D15B68DBB2222B2AD039
:103B80002000A968FEF7C8FC2000E968FEF7C4FC25
:103B9000009B032B07D120002969FEF7BDFCA36A17
:103BA000606A5B6E9847A36A606A1B6E9847002242
:103BB0002000B968FFF7D2FA00222000F968FFF769
:103BC000CDFA009B032B00D049E700223969200081
:103BD000FFF7C4FA43E729002000FEF79DFC00220E
:103BE00069E700000023F7B5C36003003433427077
:103BF000016204000D0017001A70032A03D1C08E61
:103C0000002828D1A0630026A36A39002A001B6877
:103C1000606AE686984706212000FDF7EBFF67788B
:103C2000012F01D16E84AE84EE68002E17D0B30749
:103C300015D17368DBB23F2B11D12000B168FEF7BC
:103C40006BFCA36A606AC0331B689847A36A606A0A
:103C50005B689847FEBD800005F0FDFDD2E72B783C
:103C60003100002B17D0072B1ED1012F12D10023BA
:103C7000A37046225B4B2000F168FEF72BF92B8BDB
:103C8000032B07D120003169FEF722FB8301E88A6C
:103C90001843E88271692000FEF73EFCA36A1021F8
:103CA0001B6B606A9847CCE7022B1BD1A36A316873
:103CB000DB68606A98476378012B07D10023A37003
:103CC0004C222000484BB168FEF704F92000F1684F
:103CD000FEF722FCEB8ADB07B3D5A36A606ADB6DD3
:103CE0009847DBE7033B032B4FD8F3680193012F81
:103CF00005D104223900206A14F0D1FA6F83A36A37
:103D00003168DB68606A98472B78032B24D1012245
:103D1000A36A9C331B680021606A98472B78062BA6
:103D200028D1A36A606A1B6C984701212000FEF726
:103D3000E2FBA36A606A1B6C9847A36A606A1B6C0B
:103D4000984700232000B2680199FFF7E1FA2B7829
:103D5000062B00D075E7A1E7042B04D1A36A022249
:103D60009C331B68D7E7052BD8D1A36A03229C3369
:103D70001B68D0E720000121FEF7BDFBA36A0121EB
:103D80000833DB6F606A9847DBE7012F04D1042218
:103D90000A21280014F083FA17212000FEF7ABFB5C
:103DA00016212000FFF7C8F9B168A36A606A9B6B0F
:103DB000090998471A212000FFF7BEF92000316950
:103DC000FEF7AAFB0A21280014F059FA0278A36A28
:103DD000042A00D163E742881D690A210023606A32
:103DE000A8472EE7BD240010C92400100F2370B58A
:103DF0000B4004000D001600022B02D00B4AFEF708
:103E0000F5F831002000FEF787FBA36A606A5B6D5E
:103E10009847266A3378033B032B01D873682362E3
:103E200029092000FFF788F9266270BD3E3403108F
:103E3000F0B589B0059104920400A42107AA05A851
:103E400000271E002EF058FF02970390009701975D
:103E5000039B9F4214D1009B002B04D0A36A0299BC
:103E60005B6B606A9847049AA36A606A002A00D173
:103E700078E0BC331C683100009B019AA04715E034
:103E8000079BBA00D558002D5FD003231D425CD19B
:103E9000FF216B680B40A62B1BD10222009B134213
:103EA00006D0314A29002000FEF7A0F809B0F0BD85
:103EB0001D2F01D92D4AF5E70123009AA9681A435D
:103EC000BB400092029A1A4302922000FEF724FBA4
:103ED00023E0A72B10D1009AA53B1A43A36A606A7E
:103EE0001B6C00929847A9682000FEF715FB019B08
:103EF000013301930137ABE7A82B26D1EA68002AEA
:103F00000FD0A53B1A420CD153680B40AA2B06D107
:103F100020009268A968FFF769FF0136EAE7AC2B39
:103F20000DD00F23A9680B40022B01D0104AB9E72E
:103F3000A36A09099B6B606A9847E968D4E706227F
:103F400029002000FEF7C4FBE7E70222009B134292
:103F500001D0084AA6E7019B002B01D0064AA1E741
:103F60002900B2E7B83385E77334031082340310B5
:103F700090340310B1340310C934031070B50D0030
:103F8000417804001300012903D12A00FDF7F2FE55
:103F90006861A36A606A9B6C984700236E691A0087
:103FA00031002000FDF74DFEA36AB18A9B6B606A69
:103FB0009847E968002909D003230A001A401942EA
:103FC00004D14B68DBB2A32B00D1110020000223E7
:103FD0000022FFF72DFFB08A70BD002310B51A0034
:103FE0008968FFF725FF10BDF7B50D00896804004B
:103FF000FEF792FAEE68002E2DD07368DAB28E2AA0
:104000002AD02E0001230C3600930F22216AAB68C0
:10401000097800251A40072900D078E0022A4ED1FD
:104020001A099A2A00D074E032685368DBB2302B48
:1040300045D19368AB4242D103312000FEF75BFAD1
:104040000121226AD36A128D002A09D12000474A31
:104050003168FDF7CBFFF7BD1B0A00930836D4E7A4
:104060005878084210D059682000FEF744FA009AA8
:10407000A36A022A0BD8B8331D68002302211A0054
:10408000606AA84701251AE0013A0833DCE7FF20FF
:1040900071684A680240322AEDD1B5686A68024008
:1040A000302AE8D189685B6C606A09092F3A984721
:1040B000A968002301222000FFF7BAFE0325009B18
:1040C000AB42C8D96B1C009801936A1CAB00F15835
:1040D000824245D2FF204A680240322A40D1F3187A
:1040E0005F687B680340302B3AD18968A36A00225D
:1040F0005B6C606A09099847002301222000B968B7
:10410000FFF796FE019D0135D9E70025D7E7022A82
:10411000D5D14E22FF3200251B099342CFD1316801
:104120004E3A4B681340302BC9D18B68AB42C6D096
:1041300003211D000D400B42E7D15B6813402F2B7C
:10414000BDD1A36A2A00B83329001F68606A2B001A
:10415000B84733682A0020009968FEF745FB91E7CD
:104160002000FEF7D9F90195CCE7C046EA340310E8
:10417000036A10B51B780400072B05D0022B03D06F
:10418000054AFDF733FF10BD2000FFF72DFF20008B
:10419000FDF7B5FDF7E7C0460235031010B5CA6854
:1041A0008968FFF723FE10BD10B5036A04001A8B5F
:1041B000FFF7E4FE01002000FEF7BEFF10BD10B5C2
:1041C000036A04001A8BFDF7E7FE01002000FEF7EA
:1041D000B3FF10BDF0B58D6804006B6887B0DBB22B
:1041E000032B09D12900FFF7EAFF0123AA69D18A2D
:1041F0000B43D38207B0F0BD0121026AD28A0A4282
:1042000004D129005B4AFDF7F1FEF3E7162B00D03D
:10421000A2E0E968C6680B090193331DC360FEF78D
:104220007BF9A36A606A0022AA215B6C9847A36AA3
:10423000606ABC331F6800231A001900B8472000C9
:104240000199FEF779FF6369E7680393638B606AFE
:104250000293BB1CE3607B1CE382238B791C63838A
:10426000A36AA7829B6A984701222000B118FDF734
:10427000C9FC20000199FEF73EF92000AC21FDF7B2
:1042800056FD2000A9680022FEF768FFA36A0022FD
:104290009033606AB11C1B689847A36A711C606AFE
:1042A0009B6A9847A36A606ACC331B689847A36AE5
:1042B000606A5B6D98476821A36A0122606A5B6946
:1042C000FF319847A36A606A983308211B689847B2
:1042D000A36AF21C0021606ADB6E9847A36A606AD9
:1042E000DB6D9847A36A012290333100606A1B6836
:1042F0009847A36A606AF11C9B6A9847A36A0121E8
:104300009B68606A98472000FDF78CFCA36A606A8E
:10431000D0331B689847A36A606A9B6AB11C9847B0
:1043200020002969FEF7F8F8A36A606A791C9B6E81
:104330009847039B31006361029B606A6383A36AB1
:104340009B6A984720006969FEF7E6F8A36A39007E
:104350009B6A606A98474DE7280005AA7A210830D1
:104360002EF0CAFCEB680100059A2000FFF72AFA3C
:1043700040E7C0461B350310F0B50400080089B0C3
:1043800005910830422106AA2EF0B6FC0027236AC8
:1043900003901E8B0297039B9F420BD1059BD9680C
:1043A0004B68DBB2032B53D132002000FDF7F4FD44
:1043B00005005BE0069BBA00D3586C21180007AAE1
:1043C000083004932EF098FC079B050019680A0931
:1043D000732A0FD02000FEF79FF801230193019B61
:1043E000AB4228D3049BD968002920D02000FEF7D7
:1043F00093F81CE0022805D020002A4AFDF7F6FDBC
:10440000350010E059680B09412B12D09E22920012
:10441000934208D0244A0325934204D09E3AFF3A9F
:1044200001359342E8D12E00029B013302930137FC
:10443000B1E70125F7E7019A079B9200D158A36ADB
:1044400000221B6D606A09099847019B0133C5E78B
:10445000442B17D18F68320039002000FDF79CFDF6
:1044600001230500BA69D18A0B43D3820026039B3E
:10447000029A9B1AB3420AD829002000FEF75CFE7C
:1044800009B0F0BD32002000FFF778FD90E7A36A85
:104490000121B8331F680023606A1A00B84701364B
:1044A000E5E7C0464135031039030000F0B50400CC
:1044B0000F00C56887B01E006B1C0593AB1CC36062
:1044C000290004920122FDF79DFB39002000FEF730
:1044D00023F8A36A002290331B68606A691C98471E
:1044E000A36A29009B6A606A9847A36A606ACC3312
:1044F0001B689847E368019602930133E360002349
:104500000093009B049A934216DB2000FDF78AFB80
:10451000A36A606AD0331B689847A36A05999B6AAF
:10452000606A984720000C99FDF7F6FFA36A02998C
:104530009B6A606A984735E0019B1F68E368BE6824
:1045400003930133E360009B01330093002E2BD1D2
:10455000049B009A93421CD1A36A606ADB6D984762
:104560002000F968FDF7D8FFA36A012290331B6889
:104570000299606A9847A36A03999B6A606A9847A0
:10458000A36A01219B68606A9847019B04330193E9
:10459000B7E7019B20002D4A1968FDF727FD200091
:1045A000FDF740FB07B0F0BD0325032335401E4255
:1045B00049D1FF21736832000B40762B02D1D568B8
:1045C000B6682D09A36A606A5B6D984731002000C8
:1045D000FDF7A2FFA36A082198331B68606A984719
:1045E000A36A0021DB6E039A606A9847002DB3D05E
:1045F00029002000FEF7A0FDE6680222731CE3609C
:1046000031002000FDF7FEFA2000F968FDF784FF75
:10461000A36A606A10211B6B9847A36A3100606A25
:104620009B6A9847A36A606A1B6B10219847290010
:104630002000FEF781FD20002900FDF74BFF200040
:10464000FDF7F0FA90E70025BCE7C0465F350310A0
:10465000F0B5C76885B003937B1C16000D000222DD
:104660003900C3600400FDF7CDFA002E21D1A36A02
:1046700003219B68606A984729002000FDF74CFFE2
:104680000321A36A606A9B6849429847A36A606AEB
:1046900010211B6B9847A36A39009B6A606A984790
:1046A00020000B99FDF738FF2000FDF7BBFA05B09D
:1046B000F0BD0A9B3200009329002000039BFFF706
:1046C000F5FEE3E77FB5CE68050073680C00DBB24A
:1046D000782B09D10022B3680092019313002800BF
:1046E000A168FFF7B5FF7FBD742B17D1300003AA77
:1046F000772108302EF000FB33690200002B07D130
:10470000F36800932800039BA168FFF7CFFEEAE758
:104710009B680193F3680093039BE0E7080003AAFA
:1047200077210C302EF0E8FA00230200E9E70000C0
:104730000F23F0B58E6804000D0085B033400A2BBE
:104740000BD000218E4216D00323310019401E42A7
:104750002ED17368DBB2652B1CD102960026652131
:1047600003AA02A82EF0C8FA0021039B80003F4A4A
:10477000C018834214D13E4BEA689A4236D1236A6C
:104780001F78002F16D0290020003A4AFDF72EFC92
:1047900005B0F0BD622BEED1B3680293F668DEE798
:1047A0001F68974202D101310433E2E70331FBE78E
:1047B0000021E0E7A36A606A5B6B9847A36A606ABE
:1047C00005219B6B9847A36A3A009C331B68606A7B
:1047D000012198473100200003AAFDF7E1FAA36AFE
:1047E00002223900DB6A606A9847D1E7A36A606AEF
:1047F0005B6B984728006A210C3002AA2EF07CFAE5
:1048000000270500A36A606AAF4211D19C330022E1
:1048100029001B6898473100200003AAFDF7C0FA61
:104820000026A36A606AAE420BD1DB6D9847AFE702
:10483000029AB9008A589B6B916801370909984719
:10484000E0E7029AB1008F58DB6ABA681209019258
:10485000019901229847F968002905D101992000A2
:10486000FEF76AFC0136DCE70909F8E7DA05000023
:104870002A0400007D35031037B504000D00836A5B
:1048800000215B6B406A9847A36A606A1B6B10212A
:1048900098472900200001AAFDF782FA200001991B
:1048A000FEF74AFC37BD0000F0B5A1B0069010201D
:1048B0001400079104F0B0FFD02212061268BB4B1F
:1048C0009200D35800211B695822436007000AA8B0
:1048D0002CF026FA0AAB1C70012301215B4219A8B7
:1048E0000F9304F0E3FF0221079B0122DB00194331
:1048F00019A805F011F80123002143601CA80CF051
:10490000B1F9EA22AA4B52009B5C069A0021126878
:104910000AA8FDF72FFA019017A800F073FEA54B27
:10492000119C14930023039013900293002C02D047
:104930000B9D002D1ED0119C002C02D00B9B002B38
:1049400037D000250299039800F063FE119C0B9E5E
:10495000002C00D134E1002E00D1DEE0129C0AA828
:10496000E168FDF7ADFA3000A38A0C9A07990AF0C6
:10497000CDFC28E1238B012221000AA8042B08D1B9
:10498000FDF746FB0D9B029A9A4200D20293A4685F
:10499000CCE7FFF727F9238D9D42F3D2E26AEB00C3
:1049A000D118D35C012B02D1200013F0A2FC0135F9
:1049B000F1E70421E28A0A4215D0218D01394A1C0F
:1049C00011D00225E26AC80012185078284225D07A
:1049D000002B08D0596815008C46186842CD42C398
:1049E00063461060536000252584238D04939D4207
:1049F0001ADB00230120049A9A4244D16568002DF5
:104A00000AD000222B8D0993130009998A4249DBB1
:104A100000220125934275D1A4688DE7002BCDD1EA
:104A20000128CBD11300C9E7E66AEB00F61823781A
:104A3000012B04D173680A2B10D10135D5E73278E8
:104A4000012B0BD9012A09D103233370238B032BAC
:104A500013D01022E38A1343E38202E03378032B5E
:104A6000F4D03378042B03D0012273781342E4D0BE
:104A7000238C5A1C22847380DFE7706808F0C8FA20
:104A80000128EEDCE5E7E16ADA008D188A5C052A88
:104A900006D16A78024203D1228C6A8001322284D4
:104AA0000133A8E7E86AD1004618415C0896053949
:104AB000012918D8002111E00599E66AC8003118CB
:104AC000305C8C46062807D108994E6861464868D4
:104AD000864201D14B80013305990131059105983A
:104AE00004998142E8D101328FE7E06AD10046188B
:104AF000415C062902D17178294202D07188C91817
:104B00007180013204999142EFD1628B9BB29A1865
:104B10006283228C9B1823847EE7238B042B19D17C
:104B2000159B002B03D1029801F032FA1590002357
:104B30001393214B032221000AA81693FDF768FA6C
:104B40000B9B002B04D1042221000AA8FDF760FA78
:104B5000A468FCE6023B012B23D8002D06D1029B62
:104B60000DAA0BA917A803F087FE0500134B139598
:104B70001493022221000AA8FFF734F80B9B002BA4
:104B8000E6D1032221000AA8FFF72CF80B9B002B8B
:104B9000DED1042221000AA8FFF724F80028F8D06B
:104BA000D6E7039B1393034B1493E2E7F8670320C4
:104BB000206C03209C36031004390310F83B0310CB
:104BC000002E00D0CAE6019B0B9E1B690293002EAB
:104BD00019D0039800F025FD002D3FD1159800282D
:104BE00001D001F0EAF906982EF06EF8019883687A
:104BF000019313F03BFB019B002BF7D10B9800288E
:104C000030D008F065FA199C1E9BE4086400033458
:104C1000A008C018800004F0FFFD03239C43041982
:104C2000FC601B991A9CB860A6420AD100231E9909
:104C30008B42CED01F989A008458F8680133845074
:104C4000F6E70A68002A06D0042A04D04B68D20886
:104C50005B105B001A5201360831E5E7280003F0CB
:104C60002BFEBBE73900019A029800F0ABFD21B0A2
:104C7000F0BDC0464379012B07D08368C91803698A
:104C800081605A8C914200DD5984704770B50D00E7
:104C9000002104008171FFF7EDFF6379012B03D040
:104CA000E26A236AAD00EA5070BD042110B54942A2
:104CB000FFF7E0FF10BD10B50421FFF7DBFF10BDCB
:104CC000032110B54942FFF7D5FF10BD426A03002A
:104CD00040795118032802D8180059627047586B60
:104CE0008018FAE782790300002A01D01800704783
:104CF000C26A40795118032801D8D962F6E7986A48
:104D0000D9621218586B8018F1E710B50C00012118
:104D1000FFF7E8FF047010BD70B504001500FFF741
:104D2000A9FF01212000FFF7DDFF057070BD10B560
:104D300053220121FFF7F0FF10BD10B554220121CD
:104D4000FFF7EAFF10BD10B557220121FFF7E4FF7E
:104D500010BD10B558220221FFF7DEFF10BD012162
:104D600010B559224942FFF7D7FF10BD10B55A229E
:104D70000021FFF7D1FF10BD10B55B220021FFF726
:104D8000CBFF10BD012110B55D224942FFF7C4FFE2
:104D900010BD5E2210B5002901D003210132FFF7BA
:104DA000BBFF10BD10B53039CAB20021FFF7B4FF08
:104DB00010BD022110B562224942FFF7ADFF10BDC0
:104DC000012110B5632249420400FFF7A5FF01232A
:104DD000A37110BD0A00643210B5D2B2494204007A
:104DE000FFF79AFF0123A37110BD0A0010B504005C
:104DF0006732D2B24942FFF78FFF01232269D18A7D
:104E00000B43D38210BD000070B51D000400FFF7F6
:104E100083FF2A0020000249FBF798FE70BDC046C0
:104E2000E54C001070B50D0004001900C0681600B4
:104E300000F034FC3200030029002000FFF7E4FFFB
:104E400070BD10B50B0010220121FFF7EBFF10BD64
:104E500010B511320B000121D2B2FFF7E3FF10BDF4
:104E600010B514000B00012164001432D2B2091BEA
:104E7000FFF7D8FF10BD0B00012110B51632D2B2DA
:104E80004942FFF7CFFF10BD10B519320B000021CA
:104E9000D2B2FFF7C7FF10BDF8B5C4681D00267871
:104EA0006388042E02D166689F00BD515D1C658039
:104EB000FFF7AAFFF8BD110010B52833DAB20B00D6
:104EC0000021FFF7A1FF10BD10B501240B00210048
:104ED000022A00D0E11A2A32D2B2FFF795FF10BDA4
:104EE00070B500242500032903D0042909D1013419
:104EF0002500A3189B002B43E1432F22FFF784FFDB
:104F000070BD00240225F4E710B50B0030220139F2
:104F1000FFF77AFF10BD10B513020B438918312239
:104F2000FFF772FF10BDF8B5050017001C00FFF772
:104F3000A1FEAE79002E43D16B79022B18D8032144
:104F40002800FFF7CFFE34000770442F23D96B7978
:104F5000042B06D180231B029C4202D30123383547
:104F60002B7080235B422343E4114370847027E05D
:104F7000A30002242A6AE96A9B586442641AE4186E
:104F8000442F1ED82300403309DA03212800FFF7FD
:104F9000A9FE013C07708023DB01E418D7E7012359
:104FA0003F2C00DC33001E002800B11CFFF79AFEE6
:104FB000A41B0770002EC8D1442F00D84034447081
:104FC000F8BD7F26A642B6417642EDE710B50B004C
:104FD000422200210400FFF7A6FF0123A37110BDA8
:104FE000F8B5174F05000C0016000F40002A19D124
:104FF00024040ED55921FFF788FE59212800FFF718
:1050000084FE59212800FFF780FE59212800FFF770
:105010007CFE3B00422200212800FFF784FF012391
:10502000AB71F8BD3B0040220021FFF77CFF7F23DE
:10503000210A994331432800C9B2FFF766FEEEE723
:10504000FF7FFFFF10B514000B0061424C41473257
:10505000D2B26100FFF767FF10BD10B50B004B2205
:105060000121FFF760FF10BD10B50B004A2200219F
:105070000400FFF758FF0123A37110BDF7B5E82224
:10508000234B52009B5805000191022B0DD88769D4
:10509000B9420AD9C46A4269CF1BA41A3B00234310
:1050A00004D1EB6A6B61019BAB61F7BD062F01D99F
:1050B0000F2C18D900941F2C01D91F230093009B9B
:1050C00000269C4203D83E00032F00D9032601216D
:1050D0002800FFF7FBFD009A730113430370009B48
:1050E000BF1BE41ADAE780233E001B019F4200D376
:1050F000084E02212800FFF7E9FD70223309134012
:105100002343F03A1343037046700094E7E7C04628
:10511000206C0320FF07000010B50400002905D112
:10512000552201392000FFF7F7FD10BD022904D1F7
:10513000FFF7FDFD2000FFF71FFE03215622494225
:10514000F0E7130010B54322002900D144220121C9
:105150004942FFF7E8FE10BD130010B545220029B3
:1051600000D1462201214942FFF7DDFE10BD10B5F6
:10517000040032290AD1DD2233392000FFF7CCFDAB
:10518000D32200212000FFF7C7FD10BD332902D133
:10519000DE223439F1E72939CAB201214942F1E767
:1051A0000B0010B5012A07D0022A0BD1012167326A
:1051B0004942FFF7B1FD10BD11001B32D2B2FFF71B
:1051C00031FEF8E701214942F7E770B50D00040010
:1051D000111E05D12B0013222000FFF723FE70BD06
:1051E000022A04D1FFF7A3FD2000FFF7BFFD022133
:1051F0002B0018224942EFE7110010B5002B07D110
:105200000F2A05D85039CAB20121FFF785FD10BD1C
:105210002433DAB20B000121FFF7F6FDF7E71100A6
:1052200010B5002B08D10F2A06D84039CAB2012187
:105230004942FFF771FD10BD2633DAB20B000121A0
:105240004942FFF7E1FDF6E770B5049DD2B26C006C
:105250002D02E4182B43059D002D02D00132D2B25D
:105260000134091BFFF7D0FD70BD07B50193009213
:105270000B0034220021FFF7E7FF07BD13B501241F
:10528000019300920B0036226142FFF7DDFF13BD50
:1052900010B50400C06800F018FA232203000121B1
:1052A0002000FFF7B1FD10BD0B001033F7B506006D
:1052B0000D003F2B05D8803D0121EAB2FFF72CFD00
:1052C000F7BD01212222FFF727FD6B465C1D21005F
:1052D0007F202F0022000740EBB2013CED11277028
:1052E0006F1C012FF5D840273B40013514D1002B0E
:1052F00002D1013C2070941E3000091BFFF7F2FC24
:1053000080260200230001AD7642AB420AD16A46F4
:1053100012791B1BC254D3E7002BEDD00023013CB4
:105320002370E8E719780133314311700132ECE75B
:1053300070B5040018000B690499D5B208430AD16E
:105340000121891A20222000FFF7A6FD2900200054
:10535000FFF7DBFC70BDD1432122F4E710B51C0040
:105360000B69224304D101213232FFF795FD10BDB4
:10537000012133224942F8E710B504000E290AD171
:105380000849C06800F0A1F9232203000121200090
:10539000FFF73AFD10BD4131CAB20121FFF7BCFC55
:1053A000F8E7C046986E031070B504000D00102198
:1053B000FFF7E2FF29002000FFF768FC5C222000D5
:1053C0000221FFF7A9FC042120004942FFF752FC0B
:1053D00070BD000070B543790400012B14D0002586
:1053E000C26B436A05649B1AC3632069038DAB4299
:1053F0000CD86379032B1AD1606AE36AA062236335
:10540000C01804F028FA6063012070BDC26AEB0086
:10541000D118D35C052B08D18E7820000121FFF72D
:1054200055FC0670236C013323640135DDE7042B42
:10543000EAD1626AA16AE36A8A4202D1216B994287
:1054400003D00020A2622363DFE7230038331B78F8
:10545000002B03D00549064811F0E6FDE268C38A37
:105460005268616B006900F087F9CDE78836031058
:10547000B05B0310F0B54171010000230261170019
:10548000012238318360837143618261C362436268
:105490000B703B8C798C06005B1887B0002B00D119
:1054A00013000F22F88AB98C10400390BA8B7D8BC1
:1054B0000492FA8B7820059204228C001440013A61
:1054C0002A40013B1443DA001B09024001934B08B8
:1054D00014430293AD08029A019B01211343039ADE
:1054E00030001343049A2B431343059A134330D1DE
:1054F000FFF7ECFB04707379022B14D9336CF56B56
:1055000001937E2301226C001C40019BAD091340D6
:105510001C43019BD34001932B434CD1110030001D
:10552000FFF7D4FB0470736AF068F363B98A00F084
:10553000B5F8334D020029003000FBF707FB0024CB
:105540007B8BBA8B9B18A34258DD3B8D00229C4677
:1055500050E0FFF7BBFB80235B421C43039B0470BE
:105560009C01402330221C40019B1B0113401C4323
:105570000123059A134008221C43049BDB001340BF
:105580001C43043AAB0013401C43029B023A5B00ED
:1055900013401C43019B6D08D3400193029B5B08A1
:1055A0000293039B5B080393049B5B080493059B96
:1055B0005B0805938FE701213000FFF787FB80230D
:1055C0005B42234303709CE70120FB6AD1005B1818
:1055D000597801420DD05988A1420AD15968F06822
:1055E00000F05CF8290002003000FBF7AFFA01344C
:1055F000A6E701329445E7DC0521F0E707B0F0BDEE
:10560000CD4C001010B50400442004F024F9C4600F
:1056100010BD10B50400C161880004F0FDF82062DF
:1056200010BD10B50400006A04F02AF9200004F04F
:1056300027F910BDF8B504000D00884201D1012002
:10564000F8BD144B984201D10020F9E79942FBD0F4
:1056500007F06AFD0600280007F066FD8642F3D1D8
:105660000D4B9E4211D162686B689A42ECD10826BC
:1056700000276368BB42E2D9A959A059FFF7DAFFB6
:1056800004360028E0D00137F3E72900200007F0B6
:10569000F3FFD5E71C50031094780310CB000221D0
:1056A00010B5194304000122083004F035F94368AD
:1056B000002B06D10122A368DB08013B5B001343EA
:1056C00043604068401080B210BD70B505000E0008
:1056D0000024EB69A34208D82800310014300BF0F5
:1056E0006DF9EC69013C200070BD2A6AA30031000D
:1056F0009858FFF79FFF0028F5D10134E9E710B56E
:105700000122040012F0CBFD0378012B04D1237891
:10571000012B02D90423037010BD0223FBE770B5EF
:1057200005000E00100019001C0012F0A8FD0378FF
:105730005A1E012A05D800227368210028009847C4
:1057400070BD032B02D101227368F6E736684288E8
:10575000042B04D1002321002800B047F0E70123E7
:10576000F9E710B5102004F076F8072302789A4381
:10577000063B1343037010BD10B57F241C40022369
:10578000E400234304884160A40AA4022343038065
:10579000826010BD4260FE22009B92008360019BEC
:1057A000DB001340072211401943029B02689B0251
:1057B0000B43DB02520D5205DB0A13430360039BCC
:1057C000C360704770B5040023780D005B071000BC
:1057D00061685B0F042B0BD8022B0BD9A3682A003E
:1057E0000AF008FA23881B0713D50A4B036010E060
:1057F000052B08D0A3682A000AF0CCF923881B07E0
:1058000007D5054BF2E72068E268C002400D0AF0B8
:10581000F9F970BD74640310B064031070B51D0015
:10582000802314005B001A401C4200D02A00FFF7BE
:10583000C9FF0223E2091A409A40E1B2AA1808F00F
:10584000E5FC70BD0F2370B513400400022B09D096
:105850000D4B0A0019000D4809F01EFD636A18601F
:10586000002070BD836A00201209834205D1238C79
:10587000042BF5D106490548EEE7E16A8500695831
:105880009142EED00130F0E770370310385B03101F
:10589000853703107FB504000D00100003A91E001A
:1058A0002DF0EAF9002809D12A000B490B4809F02C
:1058B000F3FC636A1860002004B070BD039807F021
:1058C000DBFC02000300B243F6D02A000449009634
:1058D000024809F0E1FCECE79C370310385B031049
:1058E000B437031070B5038CC46A032B03D10023B3
:1058F000856A9D4205D18B00E250FAF710FE012027
:1059000070BD9E00A659964201D00133F1E70020F8
:10591000F6E710B5FAF764FE10BD10B50400018477
:10592000426203290ED1826A0021C06A92002BF0E4
:10593000F7F901212000FAF7CAFD00212000FAF74B
:1059400019FE10BD0429F4D10239F3E7F8B51F00A0
:105950000F2305000E001B4C1340022B03D110092E
:1059600010F017FF04002378174A1800002351781D
:1059700081421DD161788C4691788C4518D1A178EF
:105980008C46D178614513D100290ED10E4A9B0077
:10599000D05CB84208D93B0032000C490C4809F0F1
:1059A0007BFC6B6A18600020F8BDE1780029EDD01F
:1059B00001330432152BDAD132000649044809F0CC
:1059C0006BFCEEE727D8031096390310DF3703107E
:1059D000385B0310F8370310F0B505000E0085B0F2
:1059E000002A45D003210A4242D1FF2053680340D8
:1059F0002F2B3DD19268203B14001C40022C08D173
:105A000031002800FFF7A2FF013C8440200005B0D0
:105A1000F0BD002A2CD014000C4001940A4227D17A
:105A2000516801409F2923D1D76879680140A12995
:105A30001ED1310092682800FFF788FF01248440BE
:105A40003800A221083003AA2DF056F9019F0090DA
:105A5000009B9F42DADA039AB9000F238A58280084
:105A60003100FFF773FF0123834001371C43EFE749
:105A700032000449044809F00FFC6B6A00241860E6
:105A8000C4E7C04610380310385B031010B504009B
:105A9000024809F077FB206010BDC046385B031058
:105AA000F7B50C000600002512490192042C09D814
:105AB000A5420BD0019AAB00D0580F230340022B14
:105AC00006D00D49706AFFF7E1FF00242000FEBDFB
:105AD000000910F05EFE07002DF05EF90228F0D1FB
